:020000040800F2
:100000006805002005010008CF120008F71100085C
:1000100099120008950100089517000800000000DB
:10002000000000000000000000000000491300086C
:10003000CD02000800000000D11200084B13000898
:100040001F0100081F0100081F0100081F01000810
:100050001F0100081F0100081F0100081F01000800
:100060001F0100081F0100081F0100081F010008F0
:100070001F0100081F010008990100081F01000866
:100080001F0100081F0100081F0100081F010008D0
:100090001F0100081F0100081F0100081F010008C0
:1000A0001F0100081F0100081F0100081F010008B0
:1000B0001F0100081F0100081F0100081F010008A0
:1000C0001F0100081F0100081F0100081F01000890
:1000D0001F010008311600081F0100081F01000859
:1000E0001F0100081F0100081F010008DFF810D0E1
:1000F00000F03EF800480047FD170008AFF300800D
:10010000680500200648804706480047FEE7FEE7EE
:10011000FEE7FEE7FEE7FEE7FEE7FEE7FEE7FEE7B7
:10012000AD130008ED00000840EA01039B0703D06F
:1001300009E008C9121F08C0042AFAD203E011F826
:10014000013B00F8013B521EF9D27047D2B201E0E8
:1001500000F8012B491EFBD270470022F6E710B5CC
:1001600013460A4604461946FFF7F0FF204610BD25
:10017000064C074D06E0E06840F0010394E80700F4
:1001800098471034AC42F6D3FFF7B4FFE4180008E8
:1001900004190008FEE70000014800F009B900005A
:1001A000800000202DE9F041194C184AE378A2F1B3
:1001B0002E00D618B17881702578EF1A8F4222DB95
:1001C000D75C0770777847708170F178C170002133
:1001D00006E05E18164447183679491C3E71C9B2CC
:1001E0008678761F8E42F4DC511911F8011C0175D6
:1001F00001F070F8002020712070BDE8F04140212E
:100200000248FFF7AABFBDE8F081000014010020FA
:1002100010000020F0B4194B174ADC78A2F150000E
:100220001619B17881701D7801F1050C2F1B6745F7
:100230001FDB175D0770767846708170002108E03B
:100240006618164400EB4107F678491CA7F80360CE
:10025000C9B286788E42F3D8511931F8021CA0F841
:100260001310002018711870F0BC40210248FFF7ED
:1002700074BFF0BC70470000140100201000002083
:10028000104830B40178C278891A082917DB0E4B60
:1002900000F11D019C5C1A440C7053784B7053881C
:1002A0005BBA4B8093885BBA8B80D288CA8000216E
:1002B0000171017030BC40210348FFF74EBF30BCD4
:1002C000704700001000002014010020704772B633
:1002D000FEE710B590F821100022022905D0042174
:1002E000816380F82020012010BD01680B6823F095
:1002F0000E030B6001680B6823F001030B6090F89C
:100300004030C46B012101FA03F3636080F82110CF
:1003100080F82020104610BD10B590F82110002460
:10032000022903D00421816301243DE001680A68A9
:1003300022F00E020A6001680A6822F001020A60D7
:100340001A4A0168914201D1012121E0174A143271
:10035000914201D110211BE0144A2832914201D16F
:10036000891515E0114A3C32914201D189140FE000
:100370000E4A5032914202D14FF4803108E00B4ACC
:100380006432914202D14FF4801101E04FF080714C
:10039000064A083A5160012180F82110002180F8B6
:1003A0002010416B01B18847204610BD0800024073
:1003B0002DE9F05FC16B0C6801680B68D0F840C094
:1003C000042202FA0CF2494DDFF824A1494E4A4FAB
:1003D000DFF828B1DFF828E122422CD05A072AD5CD
:1003E0000A68920603D40A6822F004020A600168CF
:1003F000A94201D1042219E0514501D1402215E062
:10040000B14202D14FF4806210E0B94202D14FF400
:1004100080420BE0594502D14FF4802206E071453D
:1004200002D14FF4800201E04FF080622F49083979
:100430004A60C16A3BE04FF0020808FA0CF818EA7B
:10044000040F4FF000094FF0010235D05FEA8378C6
:1004500032D50B689B0605D40B6823F00A030B60AA
:1004600080F821200168A94201D1022219E05145FA
:1004700001D1202215E0B14202D14FF4007210E008
:10048000B94202D14FF400520BE0594502D14FF46A
:10049000003206E0714502D14FF4001201E04FF046
:1004A0000072124908394A6080F82090816A002958
:1004B0001AD0BDE8F05F0847082505FA0CF525427B
:1004C00012D01B0710D50B6823F00E030B6090F8B9
:1004D0004010C36B02FA01F15960826380F8212059
:1004E00080F82090016BE2E7BDE8F09F0800024031
:1004F0001C0002403000024044000240580002400C
:100500006C00024030B528B308C8134914221944BE
:10051000B1FBF2F18900C163104981630221417787
:100520001A6843F6F0718A43D0E900142143D0E9F8
:1005300002452C43214304692143446921438469D2
:100540002143114319600021416301224277017761
:10055000084630BD012030BDF8FFFDBF000002405D
:1005600070B5044600F0FEF80546601C02D0044851
:100570000078044400F0F6F8401BA042FAD370BDA6
:10058000000000202DE9F84FDFF8B8910024A9F110
:10059000040B23460F2709F1040AABF1040EC9E04E
:1005A0000125A5402A40AA427DD1674ED1F804C05A
:1005B000ACEB0608B44532D014DCBCF1030F3AD0E2
:1005C00009DCBCF1000F2AD0BCF1010F1CD0BCF13A
:1005D000020F31D11DE0BCF1110F17D0BCF1120F89
:1005E0002AD119E0B8F5881F19D006DCB8F5803F8C
:1005F00015D0B8F5801F1FD111E0B8F5001F0ED03F
:10060000B8F5041F18D10AE0CB6815E0CB681B1DB4
:1006100012E0CB6808330FE0CB680C330CE08B683A
:100620002BB1012B4FF0080303D0456104E00423F4
:1006300002E0056100E00023FF2A01D8064601E040
:1006400000F104064FEA840501D9A5F12005D6F88A
:10065000008007FA05FC28EA0C0803FA05F548EAC9
:100660000508C6F800804D68ED0062D5374DAE69CB
:1006700046F00106AE61AD6924F0030605F0010500
:100680000095334D06EB050CDCF80850A607360F35
:1006900007FA06F825EA0805DFF8B880404503D1D7
:1006A0004FF0000817E044E0DFF8AC80404502D18D
:1006B0004FF001080FE0DFF8A480404502D14FF071
:1006C000020808E0DFF89880404502D14FF00308A7
:1006D00001E04FF0040808FA06F848EA0508CCF8EB
:1006E00008804D68D9F80060ED024D4601D51643EB
:1006F00000E096432E604D68DAF80060AD02554682
:1007000001D5164300E096432E604D68DBF800608B
:10071000AD035D4601D5164300E096432E604D685B
:10072000DEF80060ED03754601D5164300E0964300
:100730002E60641C0D682A46E5407FF431AFBDE8A9
:10074000F88F000008040140000011100010024062
:100750000000014000080140000C01400010014071
:10076000001401400148806870470000000000202C
:1007700002488168027811448160704700000020BF
:10078000074810B5016841F010010160032000F036
:1007900075F80F2000F006F800F024F8002010BDD6
:1007A0000020024070B50D4D04464FF47A71287850
:1007B000B1FBF0F00A490968B1FBF0F000F0DCFA97
:1007C00048B9102C07D200222146501E00F036F8FE
:1007D00000206C6070BD012070BD00000000002092
:1007E0000C0000200C4808B5816941F001018161CD
:1007F000816901F001010091C16941F08051C1613D
:10080000C06900F0805000900448416821F0E06128
:1008100041F00071416008BD00100240000001403D
:10082000002809DB00F01F020121914040098000EF
:1008300000F1E020C0F8001170470000F0B40E4B4A
:100840001B680C46C3F30223C3F10705042D00D92E
:100850000425191D072901D2002300E0DB1E012613
:1008600006FA05F1491E214099409E40761E164029
:100870003143F0BC00F08FBF0CED00E0064900F002
:10088000070208684FF6FF03184040EA0220034AB7
:1008900010430860704700000CED00E00000FA050E
:1008A0002DE9F0470F46050061D0434E306800F057
:1008B0000700B84209D2306820F0070038433060A2
:1008C000306800F00700B84251D128683B4C8107DE
:1008D00012D5400703D5606840F4E0606060287876
:1008E000000703D5606840F4605060606068A968E4
:1008F00020F0F000084360602878C00728D06868BE
:10090000012810D02168022810D0890700292EDA8A
:10091000616821F0030101436160FFF723FF804616
:1009200041F288390DE021688903EFE78901EDE79D
:10093000FFF718FFA0EB0801494502D90320BDE8E5
:10094000F0876068696800F00C00B0EB810FEFD1B0
:10095000306800F00700B8420BD9306820F007007B
:1009600038433060306800F00700B84201D0012001
:10097000E5E72878400705D56068E96820F4E0607D
:10098000084360602878000706D56068296920F46C
:10099000605040EAC100606000F038F86168084AC1
:1009A000C1F30311515CC84006490860064800685D
:1009B000FFF7F8FE0020C2E70020024000100240CE
:1009C000CA1800080C000020040000200448054953
:1009D00000684968044AC1F30221515CC84070476D
:1009E0000C00002000100240DA18000804480549F5
:1009F00000684968044AC1F3C221515CC84070478D
:100A00000C00002000100240DA1800080E4A51685D
:100A10000E4801F00C03042B11D0082B0FD10C4809
:100A2000C1F38343C903C05C0AD55168084AC1F3C6
:100A30004041921E515C054A5043B0FBF1F07047B3
:100A400004494843704700000010024000127A0039
:100A5000BA18000800093D002DE9F84F040070D0D5
:100A60002078C04DC00749D06868C0F381000128D4
:100A700007D06868C0F38100022809D16868C00304
:100A800006D52868800339D560680028E7D035E0AE
:100A90006068B0F5803F0BD010B1B0F5A02F11D039
:100AA000286820F480302860286820F4802002E044
:100AB000286840F480302860606890B1FFF752FEEB
:100AC00006460AE0286840F480202860F0E700BF6E
:100AD000FFF748FE801B642873D828688003F7D589
:100AE0000CE0FFF73FFE064605E000BFFFF73AFEC9
:100AF000801B6428F0D828688003F7D420789A4EA9
:100B000080074FF001094FF0000839D5686810F0F0
:100B10000C0F07D06868C0F38100022809D168680B
:100B2000C00306D42868800714D52069012808D19D
:100B300010E02069B0B1C6F80090FFF713FE074639
:100B400005E00AE1FFF70EFEC01B0228C4D82868A2
:100B50008007F7D52868616920F0F80040EAC100F5
:100B600028600DE0C6F80080FFF7FCFD074604E0B2
:100B7000FFF7F8FDC01B022823D828688007F7D4A8
:100B8000207800072CD57948A169D9B1C0F8009028
:100B9000FFF7E8FD074604E0FFF7E4FDC01B02286D
:100BA0000FD8686A8007F7D571484FF4FA5100688A
:100BB000B0FBF1F0009000BF0098411E0091FAD206
:100BC0000EE080E0C0F80080FFF7CCFD074604E0AF
:100BD000FFF7C8FDC01B022875D8686A8007F7D4E4
:100BE0002078400760D5E8690027C00008D4E8698C
:100BF00040F08050E861E869012700F080500090E3
:100C00005C480168C90513D40168834641F48071CA
:100C10000160FFF7A7FD824606E000BFFFF7A2FDD7
:100C2000A0EB0A0064284ED8DBF80000C005F5D51B
:100C3000E06801280AD008B1052813D0286A20F0FE
:100C400001002862286A20F0040002E0286A40F0CF
:100C500001002862E06841F2883B98B1FFF782FD0D
:100C600082460BE0286A40F004002862EEE700BFED
:100C7000FFF778FDA0EB0A0159455AD8286A80078A
:100C8000F6D50CE0FFF76EFD824605E0FFF76AFD42
:100C9000A0EB0A0159454CD8286A8007F6D41FB149
:100CA000E86920F08050E861E06988B36968C1F3C1
:100CB0008101022944D00228C6F8608004D0FFF7E1
:100CC00051FD044638E034E0FFF74CFD074604E0F0
:100CD000FFF748FDC01B02282BD828688001F7D4F5
:100CE000206AB0F5803F05D16868A16820F4003023
:100CF00008436860D4E908010843696821F4741165
:100D000008436860C6F86090FFF72CFD044606E0D3
:100D100025E000BFFFF726FD001B022809D8286840
:100D20008001F7D51BE000BFFFF71CFD001B022868
:100D300002D90320BDE8F88F28688001F4D40EE0C2
:100D40000128F7D06868226A00F48031914204D10A
:100D5000616A00F47010884201D00120EAE70020A7
:100D6000E8E70000001002400000424280044242D6
:100D70000C0000200070004010B5401EB0F1807FD4
:100D800001D3012010BD4FF0E02460610F216017F6
:100D900000F001FD0020A06107202061002010BDAF
:100DA00070477047F8B5016804460868CA684B691F
:100DB00010F00F0F4FF0000559D003F0010602F4B8
:100DC0009077374365D0C10705D0D10503D5616C55
:100DD00041F001016164410705D5D90703D0616C79
:100DE00041F002016164810705D5D90703D0616C28
:100DF00041F004016164010707D502F0200131438D
:100E000003D0616C41F008016164616C00293AD043
:100E1000800604D5900602D5204600F0F7FA206837
:100E20004069616CC0F38010090700D460B32046AC
:100E300000F0C5FA20684069400621D520681430CA
:100E400050E8001F21F0400140E80012002AF5D1CF
:100E5000E06BA8B16D494163E06BFFF75DFA0028D4
:100E600011D0E06B416B01B0BDE8F040084783064C
:100E70000FD593060DD52046BDE8F84000F0C6BA60
:100E80002046FFF78EFFF8BD2046FFF78AFF656416
:100E9000F8BD266B2023012E7CD1C6067AD5D60656
:100EA00078D508684868009048694FF00206400607
:100EB00040D5E16B086840680004000CE8D0A28DC2
:100EC0008242E5D9E085886920282DD020680C3041
:100ED00050E8001F21F4807140E80012002AF5D18B
:100EE0002068143050E8001F21F0010140E8001292
:100EF000002AF5D12068143050E8001F21F040018D
:100F000040E80012002AF5D184F8423025632068B9
:100F10000C3050E8001F21F0100140E80012002AB8
:100F2000F5D1E06BFFF7D5F96663A08DE18D401A2E
:100F300081B22AE0A08DE18D401A81B2E08D0028B7
:100F4000A6D00029A4D022680C3252E8000F20F469
:100F5000907042E80007002FF5D12068143050E867
:100F6000002F22F0010240E80027002FF5D184F87D
:100F70004230256320680C3050E8002F22F0100228
:100F800040E80023002BF5D166632046FFF708FFF9
:100F9000F8BDFFE705062BD5150629D594F84100C5
:100FA0002128F5D1A068B0F5805F01D12069B0B1EA
:100FB000206A411C2162216800784860E08C401E54
:100FC0000004000CE084E3D12068C16821F08001B6
:100FD000C1602068C16841F04001C160D8E7206A63
:100FE0000088C0F308004860206A801C2062E5E7A2
:100FF0004006CDD55006CBD5CA68204622F0400227
:10100000CA6084F8413000F0F5F8C1E7AF1300087A
:1010100070B5040004D094F84100002510B106E03A
:10102000012070BD84F84050204600F023F82420B1
:1010300084F841002068C16821F40051C160204655
:1010400000F046FA2068016921F4904101612068AE
:10105000416921F02A0141612068C16841F40051D1
:10106000C1606564202084F8410084F84200656313
:10107000002070BD70B586B000250646009501952C
:10108000029503950068224988423FD12149886929
:1010900040F480408861886900F480400490886949
:1010A00040F00400886188691B4C00F00400049043
:1010B00048150090022001900320039069462046C5
:1010C000FFF760FA2015CDE9000569462046029534
:1010D000FFF758FA124C114820601020C4E90105AE
:1010E0008020C4E903056561A5612046E561FFF73D
:1010F00009FA08B1FFF7EBF8B46300221146252086
:101100006662FFF79BFB2520FFF78AFB06B070BDE8
:101110000038014000100240000801404400024035
:101120008000002090F84230202B01D00220704730
:1011300021B11AB10023036300F026BA01207047E1
:1011400000680349884201D100F070BB704700007D
:10115000003801402DE9F843044690F841009846D4
:1011600016460D46202802D00220BDE8F88385B13E
:101170007EB100206064212084F84100FFF7F2FA7C
:10118000A6848146E684A0682027B0F5805F02D05F
:1011900003E00120E9E7206910B12E4600250EE0AA
:1011A00000260CE08021204600F009FAA8B9C6B15B
:1011B00016F8010B21684860E08C401EE084E08C4A
:1011C0004B464FF00002CDF800800028EAD14FF0E6
:1011D0004001204600F0F3F940B184F8417003204B
:1011E000C3E735F8020BC0F30800E3E784F8417069
:1011F0000020BAE77047FEE7094808B5416941F0A9
:10120000010141614069002200F001000090114697
:101210000E20FFF713FBBDE808400E20FFF700BBD0
:10122000001002400D4808B5816941F0100181614C
:10123000816901F010010091816941F02001816113
:10124000816901F020010091816941F0040181610F
:10125000806900F00400009008BD0000001002400A
:101260000C4810B50A4901604FF4E131416000219A
:1012700081600C22C160C0E904128161C161FFF785
:10128000C7FE002803D0BDE81040FFF720B810BD0E
:101290000038014038000020FEE770B505464FF6E3
:1012A000FF7000224AF201040EE0AB5C58400023BC
:1012B000C60702D084EA500000E040085B1CDBB2A5
:1012C000082BF5D3521C92B28A42EED370BDFEE7D2
:1012D00070470000F0B51B4908464E7805798488B0
:1012E000C388028916308A3E052E05D2DFE806F053
:1012F0000303050C16000570F0BD61BA418059BAB0
:10130000818051BAC180F0BD64BA04815BBA438167
:1013100052BA8281498949BAC181F0BD094A002384
:10132000223A42F8483F938093711A468B785B1FAC
:1013300005E08C1885182479521C2C74D2B2934283
:10134000F7DCF0BDE60000207047FFF711BA30B5BA
:101350008FB028216846FEF700FF14210AA8FEF787
:10136000FCFE01210804CDE90010002402940225AE
:101370000491CDE907504FF4E01009906846FFF75B
:101380006BFB08B172B6FEE70F20CDE90A054FF4FA
:101390008060CDE90C4002210AA80E94FFF780FA84
:1013A000002801D072B6FEE70FB030BD704710B50F
:1013B000406A0021C185C184FFF7F3FC10BD0168BC
:1013C0000C3151E8002F22F4907241E80023002BE9
:1013D000F5D10168143151E8002F22F0010241E8F3
:1013E0000023002BF5D1016B012909D101680C31D3
:1013F00051E8002F22F0100241E80023002BF5D124
:10140000202180F8421000210163704708B590F850
:101410004210222901D0022008BD82684FF4805377
:101420009A4201D1016921B1816A9A421BD04AB125
:101430000AE00268816A5268C2F308020A80816A7F
:10144000891C08E0026972B10268526802F07F02EA
:101450000A70816A491C8162C18D491E0904090C08
:10146000C18503D01BE002685268F1E70168CA68D1
:1014700022F02002CA600168CA6822F48072CA6041
:1014800001684A6922F001024A61202180F8421075
:1014900000214163026B012A03D0FFF751FE0020B7
:1014A00008BD016301680C3151E8002F22F01002E1
:1014B00041E80023002BF5D101680A68D20602D565
:1014C0000A6849680091818DFFF76AFCE7E7000030
:1014D00070B5044600680169E26821F44051114387
:1014E00001612169A0680843616908432168CA68ED
:1014F00041F20C639A430243CA6020684169A269C1
:1015000021F44071114341611E492068884202D193
:10151000FFF76CFA01E0FFF759FA00EBC00101EBAD
:101520000012606864218000B2FBF0F3B3FBF1F3BA
:101530006FF018067343B2FBF0F5B2FBF0F605EB63
:101540008305322303EB0515B5FBF1F5B6FBF1F688
:1015500005F0F00505EB0615B2FBF0F6B2FBF0F076
:10156000B0FBF1F06FF01802504306EB800003EB84
:101570000010B0FBF1F0216800F00F0028448860F3
:1015800070BD00000038014081628285C285002163
:101590004164222180F84210016921B10168CA68C2
:1015A00042F48072CA6001684A6942F001024A61ED
:1015B0000068C16841F02001C160002070472DE93A
:1015C000F843984617460D460446089E24E0701CD2
:1015D00022D0FFF7C7F8A0EB0800B0421AD8CEB16E
:1015E0002068C168490717D5802D15D0402D13D02C
:1015F0000168C94309070FD40168002540680090BD
:101600002046FFF7DCFE0820606484F8405001208B
:10161000BDE8F8830320FBE72068006835EA000096
:1016200004D00020B842D2D00020F1E70120F9E731
:101630000148FFF7B7BB000038000020064910B58D
:101640000020087100F02EF90122BDE8104040F2A0
:101650000121104600F03AB81000002070B5194C76
:1016600020706170901DA0700120E070FF2020713B
:101670000021084606E01D5C26182944401C7571AF
:1016800089B2C0B29042F6D320786278E3781044F1
:10169000A278134418442379521E18440844094977
:1016A000207301F17B00FEF73FFD0648A2787A30F7
:1016B000217B1154BDE87040411C4FF0FF330248BC
:1016C000FFF748BDD90000203800002010B50B4CB2
:1016D00020700320607048BA608050BAA080062154
:1016E0002046FFF7DAFDE0802146BDE810404FF0CC
:1016F000FF3308220248FFF72DBD00001D00002027
:101700003800002070B5224C002501226378A01D0E
:10171000012B16D0022B1FD00221032B2AD0042B21
:1017200027D1C4F8065065812573027041700321EA
:1017300081700421C17005220271627103466E211D
:1017400013E0C4F80650658125733F21104B0170EA
:101750009B1D62716A2108E0C4F8065065810C4B3C
:10176000257302709B1D62716C210120FFF776FFCB
:10177000657070BDC4F806506581257301701E2226
:101780004270034B61719B1D0A466D21EDE700001D
:1017900010000020FEE70907090E002804DB00F115
:1017A000E02080F80014704700F00F0000F1E02006
:1017B00080F8141D704702E008C8121F08C1002AF3
:1017C000FAD170477047002001E001C1121F002AC2
:1017D000FBD170478B280FD006DC03280CD00628DD
:1017E0000AD08A2806D107E08C2805D08D2803D09E
:1017F0008E2801D00020704701207047FEF7C0FFFF
:10180000FFF7A5FDFFF70EFDFFF7F6FCFFF728FD3C
:101810004FF47A742046FEF7A3FEFFF70FFF00BFD8
:10182000FFF770FF2046FEF79BFEF9E71B4910B556
:101830001B4A08788B781354401CC0B208700B798F
:1018400033B1012B23D0032B1BD0062B21D11BE05E
:1018500003281ED3104410F8033C012B19D110F8B3
:10186000020CFFF7B7FFA0B10878024412F8022C6F
:10187000032A02D0062A00D001220A71C01EC870B5
:1018800007E0FEF7C7FC04E0FEF7FAFC01E0FEF714
:1018900089FCBDE8104000F005B8000010000020F1
:1018A00014010020012202490248FFF73BBC00005E
:1018B0001200002038000020010202030405060780
:1018C00008090A0B0C0D0E0F10100000000000009C
:1018D00000000102030406070809000000000102DD
:1018E0000304000004190008000000203800000074
:1018F000B61700083C190008380000203005000029
:10190000C6170008010000001000000000000000E1
:1019100000127A000000000000000000000000003B
:1019200000000000000000000000000000000000B7
:0C193000000000000000000000000000AB
:04000005080000ED02
:00000001FF
